{
  "contractName": "Board",
  "abi": [
    {
      "inputs": [],
      "stateMutability": "nonpayable",
      "type": "constructor"
    },
    {
      "anonymous": false,
      "inputs": [
        {
          "indexed": false,
          "internalType": "uint8",
          "name": "_row",
          "type": "uint8"
        },
        {
          "indexed": false,
          "internalType": "uint8",
          "name": "_col",
          "type": "uint8"
        },
        {
          "indexed": false,
          "internalType": "uint256",
          "name": "colour",
          "type": "uint256"
        }
      ],
      "name": "ColourChange",
      "type": "event"
    },
    {
      "inputs": [
        {
          "internalType": "uint256",
          "name": "",
          "type": "uint256"
        }
      ],
      "name": "arr_bids",
      "outputs": [
        {
          "internalType": "uint256",
          "name": "",
          "type": "uint256"
        }
      ],
      "stateMutability": "view",
      "type": "function",
      "constant": true
    },
    {
      "inputs": [
        {
          "internalType": "uint256",
          "name": "",
          "type": "uint256"
        }
      ],
      "name": "arr_colours",
      "outputs": [
        {
          "internalType": "uint256",
          "name": "",
          "type": "uint256"
        }
      ],
      "stateMutability": "view",
      "type": "function",
      "constant": true
    },
    {
      "inputs": [
        {
          "internalType": "uint256",
          "name": "",
          "type": "uint256"
        }
      ],
      "name": "arr_messages",
      "outputs": [
        {
          "internalType": "string",
          "name": "",
          "type": "string"
        }
      ],
      "stateMutability": "view",
      "type": "function",
      "constant": true
    },
    {
      "inputs": [],
      "name": "owner",
      "outputs": [
        {
          "internalType": "address",
          "name": "",
          "type": "address"
        }
      ],
      "stateMutability": "view",
      "type": "function",
      "constant": true
    },
    {
      "inputs": [
        {
          "internalType": "uint8",
          "name": "_row",
          "type": "uint8"
        },
        {
          "internalType": "uint8",
          "name": "_col",
          "type": "uint8"
        },
        {
          "internalType": "uint256",
          "name": "_colour",
          "type": "uint256"
        },
        {
          "internalType": "string",
          "name": "_message",
          "type": "string"
        }
      ],
      "name": "placeBidMessage",
      "outputs": [],
      "stateMutability": "payable",
      "type": "function",
      "payable": true
    },
    {
      "inputs": [],
      "name": "getSize",
      "outputs": [
        {
          "internalType": "uint16",
          "name": "",
          "type": "uint16"
        }
      ],
      "stateMutability": "pure",
      "type": "function",
      "constant": true
    },
    {
      "inputs": [],
      "name": "getColours",
      "outputs": [
        {
          "internalType": "uint256[100]",
          "name": "",
          "type": "uint256[100]"
        }
      ],
      "stateMutability": "view",
      "type": "function",
      "constant": true
    },
    {
      "inputs": [
        {
          "internalType": "uint8",
          "name": "_row",
          "type": "uint8"
        },
        {
          "internalType": "uint8",
          "name": "_col",
          "type": "uint8"
        }
      ],
      "name": "getBid",
      "outputs": [
        {
          "internalType": "uint256",
          "name": "",
          "type": "uint256"
        }
      ],
      "stateMutability": "view",
      "type": "function",
      "constant": true
    },
    {
      "inputs": [
        {
          "internalType": "uint8",
          "name": "_row",
          "type": "uint8"
        },
        {
          "internalType": "uint8",
          "name": "_col",
          "type": "uint8"
        }
      ],
      "name": "getMessage",
      "outputs": [
        {
          "internalType": "string",
          "name": "",
          "type": "string"
        }
      ],
      "stateMutability": "view",
      "type": "function",
      "constant": true
    }
  ],
  "bytecode": "0x608060405234801561000f575f80fd5b503361012c5f6101000a81548173ffffffffffffffffffffffffffffffffffffffff021916908373ffffffffffffffffffffffffffffffffffffffff160217905550610f648061005e5f395ff3fe608060405260043610610085575f3560e01c80638da5cb5b116100585780638da5cb5b14610147578063c598cdac14610171578063de8fa431146101ad578063ea2eccaf146101d7578063f30f86ea1461021357610085565b806318d53ab21461008957806358506e90146100c55780636178daec146100ef57806367715c491461012b575b5f80fd5b348015610094575f80fd5b506100af60048036038101906100aa9190610666565b61024f565b6040516100bc91906106bc565b60405180910390f35b3480156100d0575f80fd5b506100d9610294565b6040516100e6919061077a565b60405180910390f35b3480156100fa575f80fd5b50610115600480360381019061011091906107be565b6102de565b6040516101229190610873565b60405180910390f35b610145600480360381019061014091906108f4565b61037d565b005b348015610152575f80fd5b5061015b6104da565b60405161016891906109b7565b60405180910390f35b34801561017c575f80fd5b5061019760048036038101906101929190610666565b610500565b6040516101a49190610873565b60405180910390f35b3480156101b8575f80fd5b506101c16105cc565b6040516101ce91906109ec565b60405180910390f35b3480156101e2575f80fd5b506101fd60048036038101906101f891906107be565b6105d4565b60405161020a91906106bc565b60405180910390f35b34801561021e575f80fd5b50610239600480360381019061023491906107be565b6105ec565b60405161024691906106bc565b60405180910390f35b5f808260ff16600a8560ff166102659190610a32565b61026f9190610a6e565b61ffff1690506064816064811061028957610288610aa3565b5b015491505092915050565b61029c610605565b5f6064806020026040519081016040528092919082606480156102d4576020028201915b8154815260200190600101908083116102c0575b5050505050905090565b60c881606481106102ed575f80fd5b015f9150905080546102fe90610afd565b80601f016020809104026020016040519081016040528092919081815260200182805461032a90610afd565b80156103755780601f1061034c57610100808354040283529160200191610375565b820191905f5260205f20905b81548152906001019060200180831161035857829003601f168201915b505050505081565b5f8460ff16600a8760ff166103929190610a32565b61039c9190610a6e565b61ffff169050630100000084106103e8576040517f08c379a00000000000000000000000000000000000000000000000000000000081526004016103df90610b9d565b60405180910390fd5b34606482606481106103fd576103fc610aa3565b5b01541061043f576040517f08c379a000000000000000000000000000000000000000000000000000000000815260040161043690610c2b565b60405180910390fd5b828260c8836064811061045557610454610aa3565b5b019182610463929190610e1d565b50346064826064811061047957610478610aa3565b5b0181905550835f826064811061049257610491610aa3565b5b01819055507fb4f1a3d0fb26038ca4fba7792831003a84ad8d09084dffd571111859742f1cdc8686866040516104ca93929190610ef9565b60405180910390a1505050505050565b61012c5f9054906101000a900473ffffffffffffffffffffffffffffffffffffffff1681565b60605f8260ff16600a8560ff166105179190610a32565b6105219190610a6e565b61ffff16905060c8816064811061053b5761053a610aa3565b5b01805461054790610afd565b80601f016020809104026020016040519081016040528092919081815260200182805461057390610afd565b80156105be5780601f10610595576101008083540402835291602001916105be565b820191905f5260205f20905b8154815290600101906020018083116105a157829003601f168201915b505050505091505092915050565b5f600a905090565b5f81606481106105e2575f80fd5b015f915090505481565b606481606481106105fb575f80fd5b015f915090505481565b60405180610c800160405280606490602082028036833780820191505090505090565b5f80fd5b5f80fd5b5f60ff82169050919050565b61064581610630565b811461064f575f80fd5b50565b5f813590506106608161063c565b92915050565b5f806040838503121561067c5761067b610628565b5b5f61068985828601610652565b925050602061069a85828601610652565b9150509250929050565b5f819050919050565b6106b6816106a4565b82525050565b5f6020820190506106cf5f8301846106ad565b92915050565b5f60649050919050565b5f81905092915050565b5f819050919050565b6106fb816106a4565b82525050565b5f61070c83836106f2565b60208301905092915050565b5f602082019050919050565b61072d816106d5565b61073781846106df565b9250610742826106e9565b805f5b838110156107725781516107598782610701565b965061076483610718565b925050600181019050610745565b505050505050565b5f610c808201905061078e5f830184610724565b92915050565b61079d816106a4565b81146107a7575f80fd5b50565b5f813590506107b881610794565b92915050565b5f602082840312156107d3576107d2610628565b5b5f6107e0848285016107aa565b91505092915050565b5f81519050919050565b5f82825260208201905092915050565b5f5b83811015610820578082015181840152602081019050610805565b5f8484015250505050565b5f601f19601f8301169050919050565b5f610845826107e9565b61084f81856107f3565b935061085f818560208601610803565b6108688161082b565b840191505092915050565b5f6020820190508181035f83015261088b818461083b565b905092915050565b5f80fd5b5f80fd5b5f80fd5b5f8083601f8401126108b4576108b3610893565b5b8235905067ffffffffffffffff8111156108d1576108d0610897565b5b6020830191508360018202830111156108ed576108ec61089b565b5b9250929050565b5f805f805f6080868803121561090d5761090c610628565b5b5f61091a88828901610652565b955050602061092b88828901610652565b945050604061093c888289016107aa565b935050606086013567ffffffffffffffff81111561095d5761095c61062c565b5b6109698882890161089f565b92509250509295509295909350565b5f73ffffffffffffffffffffffffffffffffffffffff82169050919050565b5f6109a182610978565b9050919050565b6109b181610997565b82525050565b5f6020820190506109ca5f8301846109a8565b92915050565b5f61ffff82169050919050565b6109e6816109d0565b82525050565b5f6020820190506109ff5f8301846109dd565b92915050565b7f4e487b71000000000000000000000000000000000000000000000000000000005f52601160045260245ffd5b5f610a3c826109d0565b9150610a47836109d0565b9250828202610a55816109d0565b9150808214610a6757610a66610a05565b5b5092915050565b5f610a78826109d0565b9150610a83836109d0565b9250828201905061ffff811115610a9d57610a9c610a05565b5b92915050565b7f4e487b71000000000000000000000000000000000000000000000000000000005f52603260045260245ffd5b7f4e487b71000000000000000000000000000000000000000000000000000000005f52602260045260245ffd5b5f6002820490506001821680610b1457607f821691505b602082108103610b2757610b26610ad0565b5b50919050565b7f5247422076616c756573206d757374206265206265747765656e203020616e645f8201527f2032353500000000000000000000000000000000000000000000000000000000602082015250565b5f610b876024836107f3565b9150610b9282610b2d565b604082019050919050565b5f6020820190508181035f830152610bb481610b7b565b9050919050565b7f426964206d757374206265206d6f7265207468616e207468652063757272656e5f8201527f7420626964000000000000000000000000000000000000000000000000000000602082015250565b5f610c156025836107f3565b9150610c2082610bbb565b604082019050919050565b5f6020820190508181035f830152610c4281610c09565b9050919050565b5f82905092915050565b7f4e487b71000000000000000000000000000000000000000000000000000000005f52604160045260245ffd5b5f819050815f5260205f209050919050565b5f6020601f8301049050919050565b5f82821b905092915050565b5f60088302610cdc7fffffffffffffffffffffffffffffffffffffffffffffffffffffffffffffffff82610ca1565b610ce68683610ca1565b95508019841693508086168417925050509392505050565b5f819050919050565b5f610d21610d1c610d17846106a4565b610cfe565b6106a4565b9050919050565b5f819050919050565b610d3a83610d07565b610d4e610d4682610d28565b848454610cad565b825550505050565b5f90565b610d62610d56565b610d6d818484610d31565b505050565b5b81811015610d9057610d855f82610d5a565b600181019050610d73565b5050565b601f821115610dd557610da681610c80565b610daf84610c92565b81016020851015610dbe578190505b610dd2610dca85610c92565b830182610d72565b50505b505050565b5f82821c905092915050565b5f610df55f1984600802610dda565b1980831691505092915050565b5f610e0d8383610de6565b9150826002028217905092915050565b610e278383610c49565b67ffffffffffffffff811115610e4057610e3f610c53565b5b610e4a8254610afd565b610e55828285610d94565b5f601f831160018114610e82575f8415610e70578287013590505b610e7a8582610e02565b865550610ee1565b601f198416610e9086610c80565b5f5b82811015610eb757848901358255600182019150602085019450602081019050610e92565b86831015610ed45784890135610ed0601f891682610de6565b8355505b6001600288020188555050505b50505050505050565b610ef381610630565b82525050565b5f606082019050610f0c5f830186610eea565b610f196020830185610eea565b610f2660408301846106ad565b94935050505056fea2646970667358221220454cdf4ad0b3f50aaddf024a35eca782ceef4e1281ba751c0494f28cb3ecd8b764736f6c63430008150033",
  "immutableReferences": {},
  "source": "pragma solidity ^0.8.21;\nimport \"truffle/console.sol\";\n\ncontract Board {\n    uint16 constant size = 10;\n    // flattened 2d arrays\n    uint256[size * size] public arr_colours;\n    uint256[size * size] public arr_bids;\n    string[size*size] public arr_messages;\n    address public owner;\n\n    // ------------\n    // Constructor\n\n    constructor() {\n        owner = msg.sender;\n    }\n\n    // ------------\n    // Modifiers\n\n    modifier onlyOwner() {\n        require(\n            msg.sender == owner,\n            \"Only the contract owner can call this function\"\n        );\n        _;\n    }\n\n    // ------------\n    // Events\n\n    event ColourChange(uint8 _row, uint8 _col, uint256 colour);\n\n    // ------------\n    // Functions\n\n    function placeBidMessage(uint8 _row, uint8 _col, uint256 _colour, string calldata _message) public payable {\n        uint256 pos = _row * size + _col;\n        require(\n            _colour < 16777216, // = 16**6 = #ffffff\n            \"RGB values must be between 0 and 255\"\n        );\n        require(\n            arr_bids[pos] < msg.value,\n            \"Bid must be more than the current bid\"\n        );\n\n        // set message for given position\n        arr_messages[pos] = _message;\n\n        // set bid for given position\n        arr_bids[pos] = msg.value;\n\n        // set colour for given position\n        arr_colours[pos] = _colour;\n        // Broadcast change\n        emit ColourChange(_row, _col, _colour);\n    }\n\n    function getSize() public pure returns (uint16) {\n        return size;\n    }\n\n    function getColours() public view returns (uint256[size * size] memory) {\n        return arr_colours;\n    }\n\n\n    function getBid(uint8 _row, uint8 _col) public view returns (uint256) {\n        uint256 pos = _row * size + _col;\n        return arr_bids[pos];\n    }\n\n    function getMessage(uint8 _row, uint8 _col) public view returns (string memory) {\n        uint256 pos = _row * size + _col;\n        return arr_messages[pos];\n    }\n}\n\n//     0xd8b934580fcE35a11B58C6D73aDeE468a2833fa8\n// 0xf8e81D47203A594245E36C48e151709F0C19fBe8\n",
  "sourcePath": "/home/martin/Documents/Code/ethereum_intro/one_hundred_pixel_board/contracts/Board.sol",
  "compiler": {
    "name": "solc",
    "version": "0.8.21+commit.d9974bed.Emscripten.clang"
  },
  "schemaVersion": "3.4.16",
  "updatedAt": "2024-05-15T17:49:14.751Z",
  "networkType": "ethereum",
  "devdoc": {
    "kind": "dev",
    "methods": {},
    "version": 1
  },
  "userdoc": {
    "kind": "user",
    "methods": {},
    "version": 1
  }
}