{
  "contractName": "Board",
  "abi": [
    {
      "anonymous": false,
      "inputs": [
        {
          "indexed": false,
          "internalType": "uint8",
          "name": "_row",
          "type": "uint8"
        },
        {
          "indexed": false,
          "internalType": "uint8",
          "name": "_col",
          "type": "uint8"
        },
        {
          "indexed": false,
          "internalType": "uint256",
          "name": "colour",
          "type": "uint256"
        }
      ],
      "name": "ColourChange",
      "type": "event"
    },
    {
      "inputs": [
        {
          "internalType": "uint256",
          "name": "",
          "type": "uint256"
        },
        {
          "internalType": "uint256",
          "name": "",
          "type": "uint256"
        }
      ],
      "name": "arr_bets",
      "outputs": [
        {
          "internalType": "uint8",
          "name": "",
          "type": "uint8"
        }
      ],
      "stateMutability": "view",
      "type": "function",
      "constant": true
    },
    {
      "inputs": [
        {
          "internalType": "uint256",
          "name": "",
          "type": "uint256"
        },
        {
          "internalType": "uint256",
          "name": "",
          "type": "uint256"
        }
      ],
      "name": "arr_colours",
      "outputs": [
        {
          "internalType": "uint256",
          "name": "",
          "type": "uint256"
        }
      ],
      "stateMutability": "view",
      "type": "function",
      "constant": true
    },
    {
      "inputs": [
        {
          "internalType": "uint8",
          "name": "_bid",
          "type": "uint8"
        },
        {
          "internalType": "uint8",
          "name": "_col",
          "type": "uint8"
        },
        {
          "internalType": "uint8",
          "name": "_row",
          "type": "uint8"
        },
        {
          "internalType": "uint8",
          "name": "_red",
          "type": "uint8"
        },
        {
          "internalType": "uint8",
          "name": "_green",
          "type": "uint8"
        },
        {
          "internalType": "uint8",
          "name": "_blue",
          "type": "uint8"
        }
      ],
      "name": "placeBid",
      "outputs": [],
      "stateMutability": "nonpayable",
      "type": "function"
    },
    {
      "inputs": [
        {
          "internalType": "uint8",
          "name": "_col",
          "type": "uint8"
        },
        {
          "internalType": "uint8",
          "name": "_row",
          "type": "uint8"
        }
      ],
      "name": "getColour",
      "outputs": [
        {
          "internalType": "uint256",
          "name": "",
          "type": "uint256"
        }
      ],
      "stateMutability": "view",
      "type": "function",
      "constant": true
    }
  ],
  "bytecode": "0x608060405234801561000f575f80fd5b506106388061001d5f395ff3fe608060405234801561000f575f80fd5b506004361061004a575f3560e01c8063997bf6901461004e5780639a0094471461006a578063da93bbf51461009a578063f159fe71146100ca575b5f80fd5b6100686004803603810190610063919061037a565b6100fa565b005b610084600480360381019061007f9190610436565b61022d565b6040516100919190610483565b60405180910390f35b6100b460048036038101906100af9190610436565b610257565b6040516100c191906104ab565b60405180910390f35b6100e460048036038101906100df91906104c4565b610291565b6040516100f19190610483565b60405180910390f35b60ff8360ff1611158015610112575060ff8260ff1611155b8015610122575060ff8160ff1611155b610161576040517f08c379a000000000000000000000000000000000000000000000000000000000815260040161015890610582565b60405180910390fd5b8560ff1660648560ff16600a811061017c5761017b6105a0565b5b018660ff16600a8110610192576101916105a0565b5b602091828204019190069054906101000a900460ff1660ff161115610225578560648560ff16600a81106101c9576101c86105a0565b5b018660ff16600a81106101df576101de6105a0565b5b602091828204019190066101000a81548160ff021916908360ff1602179055505f8160ff1660088460ff16901b60108660ff16901b171790506102238686836102cb565b505b505050505050565b5f82600a811061023b575f80fd5b600a020181600a811061024c575f80fd5b015f91509150505481565b606482600a8110610266575f80fd5b0181600a8110610274575f80fd5b60209182820401919006915091509054906101000a900460ff1681565b5f808260ff16600a81106102a8576102a76105a0565b5b600a02018360ff16600a81106102c1576102c06105a0565b5b0154905092915050565b805f8360ff16600a81106102e2576102e16105a0565b5b600a02018460ff16600a81106102fb576102fa6105a0565b5b01819055507fb4f1a3d0fb26038ca4fba7792831003a84ad8d09084dffd571111859742f1cdc828483604051610333939291906105cd565b60405180910390a1505050565b5f80fd5b5f60ff82169050919050565b61035981610344565b8114610363575f80fd5b50565b5f8135905061037481610350565b92915050565b5f805f805f8060c0878903121561039457610393610340565b5b5f6103a189828a01610366565b96505060206103b289828a01610366565b95505060406103c389828a01610366565b94505060606103d489828a01610366565b93505060806103e589828a01610366565b92505060a06103f689828a01610366565b9150509295509295509295565b5f819050919050565b61041581610403565b811461041f575f80fd5b50565b5f813590506104308161040c565b92915050565b5f806040838503121561044c5761044b610340565b5b5f61045985828601610422565b925050602061046a85828601610422565b9150509250929050565b61047d81610403565b82525050565b5f6020820190506104965f830184610474565b92915050565b6104a581610344565b82525050565b5f6020820190506104be5f83018461049c565b92915050565b5f80604083850312156104da576104d9610340565b5b5f6104e785828601610366565b92505060206104f885828601610366565b9150509250929050565b5f82825260208201905092915050565b7f5247422076616c756573206d757374206265206265747765656e203020616e645f8201527f2032353500000000000000000000000000000000000000000000000000000000602082015250565b5f61056c602483610502565b915061057782610512565b604082019050919050565b5f6020820190508181035f83015261059981610560565b9050919050565b7f4e487b71000000000000000000000000000000000000000000000000000000005f52603260045260245ffd5b5f6060820190506105e05f83018661049c565b6105ed602083018561049c565b6105fa6040830184610474565b94935050505056fea2646970667358221220a560803f311edf23c1da22baa2403d54af5901b90c34eac09457247be20e00da64736f6c63430008150033",
  "immutableReferences": {},
  "source": "pragma solidity ^0.8.21;\nimport \"truffle/console.sol\";\n\ncontract Board {\n    uint8 constant size = 10;\n    uint256[size][size] public arr_colours;\n    uint8[size][size] public arr_bets;\n\n    // Events\n    event ColourChange(uint8 _row, uint8 _col, uint256 colour);\n\n    function placeBid(\n        uint8 _bid,\n        uint8 _col,\n        uint8 _row,\n        uint8 _red,\n        uint8 _green,\n        uint8 _blue\n    ) public {\n        // set colour for given position\n        require(\n            _red <= 255 && _green <= 255 && _blue <= 255,\n            \"RGB values must be between 0 and 255\"\n        );\n\n        if (arr_bets[_row][_col] > _bid) {\n            // [TODO] handle the funds\n            arr_bets[_row][_col] = _bid;\n\n            uint256 rgbColour = (uint256(_red) << 16) |\n                (uint256(_green) << 8) |\n                uint256(_blue);\n\n            setColour(_col, _row, rgbColour);\n        }\n    }\n\n    function setColour(uint8 _col, uint8 _row, uint256 colour) private {\n        // set colour for given position\n        arr_colours[_row][_col] = colour;\n\n        // Broadcast change\n        emit ColourChange(_row, _col, colour);\n    }\n\n    function getColour(uint8 _col, uint8 _row) public view returns (uint256) {\n        return arr_colours[_row][_col];\n    }\n}\n",
  "sourcePath": "/home/martin/Documents/Code/ethereum_intro/one_hundred_pixel_board/contracts/Board.sol",
  "compiler": {
    "name": "solc",
    "version": "0.8.21+commit.d9974bed.Emscripten.clang"
  },
  "schemaVersion": "3.4.16",
  "updatedAt": "2024-04-06T17:23:11.471Z",
  "networkType": "ethereum",
  "devdoc": {
    "kind": "dev",
    "methods": {},
    "version": 1
  },
  "userdoc": {
    "kind": "user",
    "methods": {},
    "version": 1
  }
}