{
  "contractName": "Board",
  "abi": [
    {
      "anonymous": false,
      "inputs": [
        {
          "indexed": false,
          "internalType": "uint8",
          "name": "_row",
          "type": "uint8"
        },
        {
          "indexed": false,
          "internalType": "uint8",
          "name": "_col",
          "type": "uint8"
        },
        {
          "indexed": false,
          "internalType": "uint256",
          "name": "colour",
          "type": "uint256"
        }
      ],
      "name": "ColourChange",
      "type": "event"
    },
    {
      "inputs": [
        {
          "internalType": "uint256",
          "name": "",
          "type": "uint256"
        }
      ],
      "name": "arr_bids",
      "outputs": [
        {
          "internalType": "uint256",
          "name": "",
          "type": "uint256"
        }
      ],
      "stateMutability": "view",
      "type": "function",
      "constant": true
    },
    {
      "inputs": [
        {
          "internalType": "uint256",
          "name": "",
          "type": "uint256"
        }
      ],
      "name": "arr_colours",
      "outputs": [
        {
          "internalType": "uint256",
          "name": "",
          "type": "uint256"
        }
      ],
      "stateMutability": "view",
      "type": "function",
      "constant": true
    },
    {
      "inputs": [
        {
          "internalType": "uint256",
          "name": "",
          "type": "uint256"
        }
      ],
      "name": "arr_messages",
      "outputs": [
        {
          "internalType": "string",
          "name": "",
          "type": "string"
        }
      ],
      "stateMutability": "view",
      "type": "function",
      "constant": true
    },
    {
      "inputs": [
        {
          "internalType": "uint8",
          "name": "_row",
          "type": "uint8"
        },
        {
          "internalType": "uint8",
          "name": "_col",
          "type": "uint8"
        },
        {
          "internalType": "uint256",
          "name": "_colour",
          "type": "uint256"
        },
        {
          "internalType": "string",
          "name": "_message",
          "type": "string"
        }
      ],
      "name": "placeBidMessage",
      "outputs": [],
      "stateMutability": "payable",
      "type": "function",
      "payable": true
    },
    {
      "inputs": [],
      "name": "getSize",
      "outputs": [
        {
          "internalType": "uint16",
          "name": "",
          "type": "uint16"
        }
      ],
      "stateMutability": "pure",
      "type": "function",
      "constant": true
    },
    {
      "inputs": [],
      "name": "getColours",
      "outputs": [
        {
          "internalType": "uint256[100]",
          "name": "",
          "type": "uint256[100]"
        }
      ],
      "stateMutability": "view",
      "type": "function",
      "constant": true
    },
    {
      "inputs": [
        {
          "internalType": "uint8",
          "name": "_row",
          "type": "uint8"
        },
        {
          "internalType": "uint8",
          "name": "_col",
          "type": "uint8"
        }
      ],
      "name": "getBid",
      "outputs": [
        {
          "internalType": "uint256",
          "name": "",
          "type": "uint256"
        }
      ],
      "stateMutability": "view",
      "type": "function",
      "constant": true
    },
    {
      "inputs": [
        {
          "internalType": "uint8",
          "name": "_row",
          "type": "uint8"
        },
        {
          "internalType": "uint8",
          "name": "_col",
          "type": "uint8"
        }
      ],
      "name": "getMessage",
      "outputs": [
        {
          "internalType": "string",
          "name": "",
          "type": "string"
        }
      ],
      "stateMutability": "view",
      "type": "function",
      "constant": true
    }
  ],
  "bytecode": "0x608060405234801561000f575f80fd5b50610eb18061001d5f395ff3fe60806040526004361061007a575f3560e01c8063c598cdac1161004d578063c598cdac1461013c578063de8fa43114610178578063ea2eccaf146101a2578063f30f86ea146101de5761007a565b806318d53ab21461007e57806358506e90146100ba5780636178daec146100e457806367715c4914610120575b5f80fd5b348015610089575f80fd5b506100a4600480360381019061009f919061060b565b61021a565b6040516100b19190610661565b60405180910390f35b3480156100c5575f80fd5b506100ce61025f565b6040516100db919061071f565b60405180910390f35b3480156100ef575f80fd5b5061010a60048036038101906101059190610763565b6102a9565b6040516101179190610818565b60405180910390f35b61013a60048036038101906101359190610899565b610348565b005b348015610147575f80fd5b50610162600480360381019061015d919061060b565b6104a5565b60405161016f9190610818565b60405180910390f35b348015610183575f80fd5b5061018c610571565b6040516101999190610939565b60405180910390f35b3480156101ad575f80fd5b506101c860048036038101906101c39190610763565b610579565b6040516101d59190610661565b60405180910390f35b3480156101e9575f80fd5b5061020460048036038101906101ff9190610763565b610591565b6040516102119190610661565b60405180910390f35b5f808260ff16600a8560ff16610230919061097f565b61023a91906109bb565b61ffff16905060648160648110610254576102536109f0565b5b015491505092915050565b6102676105aa565b5f60648060200260405190810160405280929190826064801561029f576020028201915b81548152602001906001019080831161028b575b5050505050905090565b60c881606481106102b8575f80fd5b015f9150905080546102c990610a4a565b80601f01602080910402602001604051908101604052809291908181526020018280546102f590610a4a565b80156103405780601f1061031757610100808354040283529160200191610340565b820191905f5260205f20905b81548152906001019060200180831161032357829003601f168201915b505050505081565b5f8460ff16600a8760ff1661035d919061097f565b61036791906109bb565b61ffff169050630100000084106103b3576040517f08c379a00000000000000000000000000000000000000000000000000000000081526004016103aa90610aea565b60405180910390fd5b34606482606481106103c8576103c76109f0565b5b01541061040a576040517f08c379a000000000000000000000000000000000000000000000000000000000815260040161040190610b78565b60405180910390fd5b828260c883606481106104205761041f6109f0565b5b01918261042e929190610d6a565b503460648260648110610444576104436109f0565b5b0181905550835f826064811061045d5761045c6109f0565b5b01819055507fb4f1a3d0fb26038ca4fba7792831003a84ad8d09084dffd571111859742f1cdc86868660405161049593929190610e46565b60405180910390a1505050505050565b60605f8260ff16600a8560ff166104bc919061097f565b6104c691906109bb565b61ffff16905060c881606481106104e0576104df6109f0565b5b0180546104ec90610a4a565b80601f016020809104026020016040519081016040528092919081815260200182805461051890610a4a565b80156105635780601f1061053a57610100808354040283529160200191610563565b820191905f5260205f20905b81548152906001019060200180831161054657829003601f168201915b505050505091505092915050565b5f600a905090565b5f8160648110610587575f80fd5b015f915090505481565b606481606481106105a0575f80fd5b015f915090505481565b60405180610c800160405280606490602082028036833780820191505090505090565b5f80fd5b5f80fd5b5f60ff82169050919050565b6105ea816105d5565b81146105f4575f80fd5b50565b5f81359050610605816105e1565b92915050565b5f8060408385031215610621576106206105cd565b5b5f61062e858286016105f7565b925050602061063f858286016105f7565b9150509250929050565b5f819050919050565b61065b81610649565b82525050565b5f6020820190506106745f830184610652565b92915050565b5f60649050919050565b5f81905092915050565b5f819050919050565b6106a081610649565b82525050565b5f6106b18383610697565b60208301905092915050565b5f602082019050919050565b6106d28161067a565b6106dc8184610684565b92506106e78261068e565b805f5b838110156107175781516106fe87826106a6565b9650610709836106bd565b9250506001810190506106ea565b505050505050565b5f610c80820190506107335f8301846106c9565b92915050565b61074281610649565b811461074c575f80fd5b50565b5f8135905061075d81610739565b92915050565b5f60208284031215610778576107776105cd565b5b5f6107858482850161074f565b91505092915050565b5f81519050919050565b5f82825260208201905092915050565b5f5b838110156107c55780820151818401526020810190506107aa565b5f8484015250505050565b5f601f19601f8301169050919050565b5f6107ea8261078e565b6107f48185610798565b93506108048185602086016107a8565b61080d816107d0565b840191505092915050565b5f6020820190508181035f83015261083081846107e0565b905092915050565b5f80fd5b5f80fd5b5f80fd5b5f8083601f84011261085957610858610838565b5b8235905067ffffffffffffffff8111156108765761087561083c565b5b60208301915083600182028301111561089257610891610840565b5b9250929050565b5f805f805f608086880312156108b2576108b16105cd565b5b5f6108bf888289016105f7565b95505060206108d0888289016105f7565b94505060406108e18882890161074f565b935050606086013567ffffffffffffffff811115610902576109016105d1565b5b61090e88828901610844565b92509250509295509295909350565b5f61ffff82169050919050565b6109338161091d565b82525050565b5f60208201905061094c5f83018461092a565b92915050565b7f4e487b71000000000000000000000000000000000000000000000000000000005f52601160045260245ffd5b5f6109898261091d565b91506109948361091d565b92508282026109a28161091d565b91508082146109b4576109b3610952565b5b5092915050565b5f6109c58261091d565b91506109d08361091d565b9250828201905061ffff8111156109ea576109e9610952565b5b92915050565b7f4e487b71000000000000000000000000000000000000000000000000000000005f52603260045260245ffd5b7f4e487b71000000000000000000000000000000000000000000000000000000005f52602260045260245ffd5b5f6002820490506001821680610a6157607f821691505b602082108103610a7457610a73610a1d565b5b50919050565b7f5247422076616c756573206d757374206265206265747765656e203020616e645f8201527f2032353500000000000000000000000000000000000000000000000000000000602082015250565b5f610ad4602483610798565b9150610adf82610a7a565b604082019050919050565b5f6020820190508181035f830152610b0181610ac8565b9050919050565b7f426964206d757374206265206d6f7265207468616e207468652063757272656e5f8201527f7420626964000000000000000000000000000000000000000000000000000000602082015250565b5f610b62602583610798565b9150610b6d82610b08565b604082019050919050565b5f6020820190508181035f830152610b8f81610b56565b9050919050565b5f82905092915050565b7f4e487b71000000000000000000000000000000000000000000000000000000005f52604160045260245ffd5b5f819050815f5260205f209050919050565b5f6020601f8301049050919050565b5f82821b905092915050565b5f60088302610c297fffffffffffffffffffffffffffffffffffffffffffffffffffffffffffffffff82610bee565b610c338683610bee565b95508019841693508086168417925050509392505050565b5f819050919050565b5f610c6e610c69610c6484610649565b610c4b565b610649565b9050919050565b5f819050919050565b610c8783610c54565b610c9b610c9382610c75565b848454610bfa565b825550505050565b5f90565b610caf610ca3565b610cba818484610c7e565b505050565b5b81811015610cdd57610cd25f82610ca7565b600181019050610cc0565b5050565b601f821115610d2257610cf381610bcd565b610cfc84610bdf565b81016020851015610d0b578190505b610d1f610d1785610bdf565b830182610cbf565b50505b505050565b5f82821c905092915050565b5f610d425f1984600802610d27565b1980831691505092915050565b5f610d5a8383610d33565b9150826002028217905092915050565b610d748383610b96565b67ffffffffffffffff811115610d8d57610d8c610ba0565b5b610d978254610a4a565b610da2828285610ce1565b5f601f831160018114610dcf575f8415610dbd578287013590505b610dc78582610d4f565b865550610e2e565b601f198416610ddd86610bcd565b5f5b82811015610e0457848901358255600182019150602085019450602081019050610ddf565b86831015610e215784890135610e1d601f891682610d33565b8355505b6001600288020188555050505b50505050505050565b610e40816105d5565b82525050565b5f606082019050610e595f830186610e37565b610e666020830185610e37565b610e736040830184610652565b94935050505056fea26469706673582212200e9d9a9afafd35cee3f9d2e6d69b0582f3c66461d685d776caf8d7fb870aa65d64736f6c63430008150033",
  "immutableReferences": {},
  "source": "pragma solidity ^0.8.21;\n\ncontract Board {\n    uint16 constant size = 10;\n    // flattened 2d arrays\n    uint256[size * size] public arr_colours;\n    uint256[size * size] public arr_bids;\n    string[size*size] public arr_messages;\n\n    // ------------\n    // Events\n\n    event ColourChange(uint8 _row, uint8 _col, uint256 colour);\n\n    // ------------\n    // Functions\n\n    function placeBidMessage(uint8 _row, uint8 _col, uint256 _colour, string calldata _message) public payable {\n        uint256 pos = _row * size + _col;\n        require(\n            _colour < 16777216, // = 16**6 = #ffffff\n            \"RGB values must be between 0 and 255\"\n        );\n        require(\n            arr_bids[pos] < msg.value,\n            \"Bid must be more than the current bid\"\n        );\n\n        // set message for given position\n        arr_messages[pos] = _message;\n\n        // set bid for given position\n        arr_bids[pos] = msg.value;\n\n        // set colour for given position\n        arr_colours[pos] = _colour;\n        // Broadcast change\n        emit ColourChange(_row, _col, _colour);\n    }\n\n    function getSize() public pure returns (uint16) {\n        return size;\n    }\n\n    function getColours() public view returns (uint256[size * size] memory) {\n        return arr_colours;\n    }\n\n\n    function getBid(uint8 _row, uint8 _col) public view returns (uint256) {\n        uint256 pos = _row * size + _col;\n        return arr_bids[pos];\n    }\n\n    function getMessage(uint8 _row, uint8 _col) public view returns (string memory) {\n        uint256 pos = _row * size + _col;\n        return arr_messages[pos];\n    }\n}",
  "sourcePath": "/home/martin/Documents/Code/ethereum_intro/one_hundred_pixel_board/contracts/Board.sol",
  "compiler": {
    "name": "solc",
    "version": "0.8.21+commit.d9974bed.Emscripten.clang"
  },
  "schemaVersion": "3.4.16",
  "updatedAt": "2024-05-16T11:01:28.661Z",
  "networkType": "ethereum",
  "devdoc": {
    "kind": "dev",
    "methods": {},
    "version": 1
  },
  "userdoc": {
    "kind": "user",
    "methods": {},
    "version": 1
  }
}