{
  "contractName": "Board",
  "abi": [
    {
      "inputs": [],
      "stateMutability": "nonpayable",
      "type": "constructor"
    },
    {
      "anonymous": false,
      "inputs": [
        {
          "indexed": false,
          "internalType": "uint8",
          "name": "_row",
          "type": "uint8"
        },
        {
          "indexed": false,
          "internalType": "uint8",
          "name": "_col",
          "type": "uint8"
        },
        {
          "indexed": false,
          "internalType": "uint256",
          "name": "colour",
          "type": "uint256"
        }
      ],
      "name": "ColourChange",
      "type": "event"
    },
    {
      "inputs": [
        {
          "internalType": "uint256",
          "name": "",
          "type": "uint256"
        }
      ],
      "name": "arr_bids",
      "outputs": [
        {
          "internalType": "uint256",
          "name": "",
          "type": "uint256"
        }
      ],
      "stateMutability": "view",
      "type": "function",
      "constant": true
    },
    {
      "inputs": [
        {
          "internalType": "uint256",
          "name": "",
          "type": "uint256"
        }
      ],
      "name": "arr_colours",
      "outputs": [
        {
          "internalType": "uint256",
          "name": "",
          "type": "uint256"
        }
      ],
      "stateMutability": "view",
      "type": "function",
      "constant": true
    },
    {
      "inputs": [],
      "name": "owner",
      "outputs": [
        {
          "internalType": "address",
          "name": "",
          "type": "address"
        }
      ],
      "stateMutability": "view",
      "type": "function",
      "constant": true
    },
    {
      "inputs": [
        {
          "internalType": "uint8",
          "name": "_row",
          "type": "uint8"
        },
        {
          "internalType": "uint8",
          "name": "_col",
          "type": "uint8"
        },
        {
          "internalType": "uint256",
          "name": "_colour",
          "type": "uint256"
        }
      ],
      "name": "placeBid",
      "outputs": [],
      "stateMutability": "payable",
      "type": "function",
      "payable": true
    },
    {
      "inputs": [],
      "name": "getSize",
      "outputs": [
        {
          "internalType": "uint16",
          "name": "",
          "type": "uint16"
        }
      ],
      "stateMutability": "view",
      "type": "function",
      "constant": true
    },
    {
      "inputs": [],
      "name": "getColours",
      "outputs": [
        {
          "internalType": "uint256[100]",
          "name": "",
          "type": "uint256[100]"
        }
      ],
      "stateMutability": "view",
      "type": "function",
      "constant": true
    },
    {
      "inputs": [
        {
          "internalType": "uint8",
          "name": "_row",
          "type": "uint8"
        },
        {
          "internalType": "uint8",
          "name": "_col",
          "type": "uint8"
        }
      ],
      "name": "getBid",
      "outputs": [
        {
          "internalType": "uint256",
          "name": "",
          "type": "uint256"
        }
      ],
      "stateMutability": "view",
      "type": "function",
      "constant": true
    },
    {
      "inputs": [
        {
          "internalType": "address payable",
          "name": "_to",
          "type": "address"
        }
      ],
      "name": "getFundsOutOfContract",
      "outputs": [],
      "stateMutability": "nonpayable",
      "type": "function"
    }
  ],
  "bytecode": "0x608060405234801561000f575f80fd5b503360c85f6101000a81548173ffffffffffffffffffffffffffffffffffffffff021916908373ffffffffffffffffffffffffffffffffffffffff160217905550610cba8061005d5f395ff3fe60806040526004361061007a575f3560e01c80638da5cb5b1161004d5780638da5cb5b14610128578063de8fa43114610152578063ea2eccaf1461017c578063f30f86ea146101b85761007a565b806318d53ab21461007e5780634ef524ca146100ba57806358506e90146100d65780637622fc5214610100575b5f80fd5b348015610089575f80fd5b506100a4600480360381019061009f919061064d565b6101f4565b6040516100b191906106a3565b60405180910390f35b6100d460048036038101906100cf91906106e6565b610239565b005b3480156100e1575f80fd5b506100ea61036f565b6040516100f791906107db565b60405180910390f35b34801561010b575f80fd5b506101266004803603810190610121919061084f565b6103b9565b005b348015610133575f80fd5b5061013c6104d3565b604051610149919061089a565b60405180910390f35b34801561015d575f80fd5b506101666104f8565b60405161017391906108cf565b60405180910390f35b348015610187575f80fd5b506101a2600480360381019061019d91906108e8565b610500565b6040516101af91906106a3565b60405180910390f35b3480156101c3575f80fd5b506101de60048036038101906101d991906108e8565b610518565b6040516101eb91906106a3565b60405180910390f35b5f808260ff16600a8560ff1661020a9190610940565b610214919061097c565b61ffff1690506064816064811061022e5761022d6109b1565b5b015491505092915050565b5f8260ff16600a8560ff1661024e9190610940565b610258919061097c565b61ffff169050630100000082106102a4576040517f08c379a000000000000000000000000000000000000000000000000000000000815260040161029b90610a5e565b60405180910390fd5b34606482606481106102b9576102b86109b1565b5b0154106102fb576040517f08c379a00000000000000000000000000000000000000000000000000000000081526004016102f290610aec565b60405180910390fd5b34606482606481106103105761030f6109b1565b5b0181905550815f8260648110610329576103286109b1565b5b01819055507fb4f1a3d0fb26038ca4fba7792831003a84ad8d09084dffd571111859742f1cdc84848460405161036193929190610b19565b60405180910390a150505050565b6103776105f0565b5f6064806020026040519081016040528092919082606480156103af576020028201915b81548152602001906001019080831161039b575b5050505050905090565b60c85f9054906101000a900473ffffffffffffffffffffffffffffffffffffffff1673ffffffffffffffffffffffffffffffffffffffff163373ffffffffffffffffffffffffffffffffffffffff1614610448576040517f08c379a000000000000000000000000000000000000000000000000000000000815260040161043f90610bbe565b60405180910390fd5b5f47905061048b6040518060400160405280601781526020017f546f74616c20436f6e74726163742042616c616e63653a00000000000000000081525082610531565b8173ffffffffffffffffffffffffffffffffffffffff166108fc8290811502906040515f60405180830381858888f193505050501580156104ce573d5f803e3d5ffd5b505050565b60c85f9054906101000a900473ffffffffffffffffffffffffffffffffffffffff1681565b5f600a905090565b5f816064811061050e575f80fd5b015f915090505481565b60648160648110610527575f80fd5b015f915090505481565b6105c98282604051602401610547929190610c56565b6040516020818303038152906040527fb60e72cc000000000000000000000000000000000000000000000000000000007bffffffffffffffffffffffffffffffffffffffffffffffffffffffff19166020820180517bffffffffffffffffffffffffffffffffffffffffffffffffffffffff83818316178352505050506105cd565b5050565b5f6a636f6e736f6c652e6c6f6790508151602083015f808383865afa5050505050565b60405180610c800160405280606490602082028036833780820191505090505090565b5f80fd5b5f60ff82169050919050565b61062c81610617565b8114610636575f80fd5b50565b5f8135905061064781610623565b92915050565b5f806040838503121561066357610662610613565b5b5f61067085828601610639565b925050602061068185828601610639565b9150509250929050565b5f819050919050565b61069d8161068b565b82525050565b5f6020820190506106b65f830184610694565b92915050565b6106c58161068b565b81146106cf575f80fd5b50565b5f813590506106e0816106bc565b92915050565b5f805f606084860312156106fd576106fc610613565b5b5f61070a86828701610639565b935050602061071b86828701610639565b925050604061072c868287016106d2565b9150509250925092565b5f60649050919050565b5f81905092915050565b5f819050919050565b61075c8161068b565b82525050565b5f61076d8383610753565b60208301905092915050565b5f602082019050919050565b61078e81610736565b6107988184610740565b92506107a38261074a565b805f5b838110156107d35781516107ba8782610762565b96506107c583610779565b9250506001810190506107a6565b505050505050565b5f610c80820190506107ef5f830184610785565b92915050565b5f73ffffffffffffffffffffffffffffffffffffffff82169050919050565b5f61081e826107f5565b9050919050565b61082e81610814565b8114610838575f80fd5b50565b5f8135905061084981610825565b92915050565b5f6020828403121561086457610863610613565b5b5f6108718482850161083b565b91505092915050565b5f610884826107f5565b9050919050565b6108948161087a565b82525050565b5f6020820190506108ad5f83018461088b565b92915050565b5f61ffff82169050919050565b6108c9816108b3565b82525050565b5f6020820190506108e25f8301846108c0565b92915050565b5f602082840312156108fd576108fc610613565b5b5f61090a848285016106d2565b91505092915050565b7f4e487b71000000000000000000000000000000000000000000000000000000005f52601160045260245ffd5b5f61094a826108b3565b9150610955836108b3565b9250828202610963816108b3565b915080821461097557610974610913565b5b5092915050565b5f610986826108b3565b9150610991836108b3565b9250828201905061ffff8111156109ab576109aa610913565b5b92915050565b7f4e487b71000000000000000000000000000000000000000000000000000000005f52603260045260245ffd5b5f82825260208201905092915050565b7f5247422076616c756573206d757374206265206265747765656e203020616e645f8201527f2032353500000000000000000000000000000000000000000000000000000000602082015250565b5f610a486024836109de565b9150610a53826109ee565b604082019050919050565b5f6020820190508181035f830152610a7581610a3c565b9050919050565b7f426964206d757374206265206d6f7265207468616e207468652063757272656e5f8201527f7420506978656c2056616c756500000000000000000000000000000000000000602082015250565b5f610ad6602d836109de565b9150610ae182610a7c565b604082019050919050565b5f6020820190508181035f830152610b0381610aca565b9050919050565b610b1381610617565b82525050565b5f606082019050610b2c5f830186610b0a565b610b396020830185610b0a565b610b466040830184610694565b949350505050565b7f4f6e6c792074686520636f6e7472616374206f776e65722063616e2063616c6c5f8201527f20746869732066756e6374696f6e000000000000000000000000000000000000602082015250565b5f610ba8602e836109de565b9150610bb382610b4e565b604082019050919050565b5f6020820190508181035f830152610bd581610b9c565b9050919050565b5f81519050919050565b5f5b83811015610c03578082015181840152602081019050610be8565b5f8484015250505050565b5f601f19601f8301169050919050565b5f610c2882610bdc565b610c3281856109de565b9350610c42818560208601610be6565b610c4b81610c0e565b840191505092915050565b5f6040820190508181035f830152610c6e8185610c1e565b9050610c7d6020830184610694565b939250505056fea2646970667358221220b8b20e6ac21854cd23a012f110b22c1a779a3f44691bee6b8aaf4a563fdf3dff64736f6c63430008150033",
  "immutableReferences": {},
  "source": "pragma solidity ^0.8.21;\nimport \"truffle/console.sol\";\n\ncontract Board {\n    uint16 constant size = 10;\n    // flattened 2d arrays\n    uint256[size * size] public arr_colours;\n    uint256[size * size] public arr_bids;\n    address public owner;\n\n    // ------------\n    // Constructor\n\n    constructor() {\n        owner = msg.sender;\n    }\n\n    // ------------\n    // Modifiers\n\n    modifier onlyOwner() {\n        require(\n            msg.sender == owner,\n            \"Only the contract owner can call this function\"\n        );\n        _;\n    }\n\n    // ------------\n    // Events\n\n    event ColourChange(uint8 _row, uint8 _col, uint256 colour);\n\n    // ------------\n    // Functions\n\n    function placeBid(uint8 _row, uint8 _col, uint256 _colour) public payable {\n        uint256 pos = _row * size + _col;\n        require(\n            _colour < 16777216, // = 16**6 = #ffffff\n            \"RGB values must be between 0 and 255\"\n        );\n        require(\n            arr_bids[pos] < msg.value,\n            \"Bid must be more than the current Pixel Value\"\n        );\n\n        // set bid for given position\n        arr_bids[pos] = msg.value;\n\n        // set colour for given position\n        arr_colours[pos] = _colour;\n        // Broadcast change\n        emit ColourChange(_row, _col, _colour);\n    }\n\n    function getSize() public view returns (uint16) {\n        return size;\n    }\n\n    function getColours() public view returns (uint256[size * size] memory) {\n        return arr_colours;\n    }\n\n    function getBid(uint8 _row, uint8 _col) public view returns (uint256) {\n        uint256 pos = _row * size + _col;\n        return arr_bids[pos];\n    }\n\n    function getFundsOutOfContract(address payable _to) public onlyOwner {\n        // For science ;)\n        uint balance = address(this).balance;\n        console.log(\"Total Contract Balance:\", balance);\n        _to.transfer(balance);\n    }\n}\n",
  "sourcePath": "/home/martin/Documents/Code/ethereum_intro/one_hundred_pixel_board/contracts/Board.sol",
  "compiler": {
    "name": "solc",
    "version": "0.8.21+commit.d9974bed.Emscripten.clang"
  },
  "schemaVersion": "3.4.16",
  "updatedAt": "2024-05-11T15:55:54.078Z",
  "networkType": "ethereum",
  "devdoc": {
    "kind": "dev",
    "methods": {},
    "version": 1
  },
  "userdoc": {
    "kind": "user",
    "methods": {},
    "version": 1
  }
}