{
  "contractName": "Board",
  "abi": [
    {
      "inputs": [],
      "stateMutability": "nonpayable",
      "type": "constructor"
    },
    {
      "anonymous": false,
      "inputs": [
        {
          "indexed": false,
          "internalType": "uint8",
          "name": "_row",
          "type": "uint8"
        },
        {
          "indexed": false,
          "internalType": "uint8",
          "name": "_col",
          "type": "uint8"
        },
        {
          "indexed": false,
          "internalType": "uint256",
          "name": "colour",
          "type": "uint256"
        }
      ],
      "name": "ColourChange",
      "type": "event"
    },
    {
      "inputs": [
        {
          "internalType": "uint256",
          "name": "",
          "type": "uint256"
        }
      ],
      "name": "arr_bids",
      "outputs": [
        {
          "internalType": "uint256",
          "name": "",
          "type": "uint256"
        }
      ],
      "stateMutability": "view",
      "type": "function",
      "constant": true
    },
    {
      "inputs": [
        {
          "internalType": "uint256",
          "name": "",
          "type": "uint256"
        }
      ],
      "name": "arr_colours",
      "outputs": [
        {
          "internalType": "uint256",
          "name": "",
          "type": "uint256"
        }
      ],
      "stateMutability": "view",
      "type": "function",
      "constant": true
    },
    {
      "inputs": [
        {
          "internalType": "uint256",
          "name": "",
          "type": "uint256"
        }
      ],
      "name": "arr_messages",
      "outputs": [
        {
          "internalType": "string",
          "name": "",
          "type": "string"
        }
      ],
      "stateMutability": "view",
      "type": "function",
      "constant": true
    },
    {
      "inputs": [],
      "name": "owner",
      "outputs": [
        {
          "internalType": "address",
          "name": "",
          "type": "address"
        }
      ],
      "stateMutability": "view",
      "type": "function",
      "constant": true
    },
    {
      "inputs": [
        {
          "internalType": "uint8",
          "name": "_row",
          "type": "uint8"
        },
        {
          "internalType": "uint8",
          "name": "_col",
          "type": "uint8"
        },
        {
          "internalType": "uint256",
          "name": "_colour",
          "type": "uint256"
        }
      ],
      "name": "placeBid",
      "outputs": [],
      "stateMutability": "payable",
      "type": "function",
      "payable": true
    },
    {
      "inputs": [
        {
          "internalType": "uint8",
          "name": "_row",
          "type": "uint8"
        },
        {
          "internalType": "uint8",
          "name": "_col",
          "type": "uint8"
        },
        {
          "internalType": "uint256",
          "name": "_colour",
          "type": "uint256"
        },
        {
          "internalType": "string",
          "name": "_message",
          "type": "string"
        }
      ],
      "name": "placeBidMessage",
      "outputs": [],
      "stateMutability": "payable",
      "type": "function",
      "payable": true
    },
    {
      "inputs": [],
      "name": "getSize",
      "outputs": [
        {
          "internalType": "uint16",
          "name": "",
          "type": "uint16"
        }
      ],
      "stateMutability": "pure",
      "type": "function",
      "constant": true
    },
    {
      "inputs": [],
      "name": "getColours",
      "outputs": [
        {
          "internalType": "uint256[100]",
          "name": "",
          "type": "uint256[100]"
        }
      ],
      "stateMutability": "view",
      "type": "function",
      "constant": true
    },
    {
      "inputs": [
        {
          "internalType": "uint8",
          "name": "_row",
          "type": "uint8"
        },
        {
          "internalType": "uint8",
          "name": "_col",
          "type": "uint8"
        }
      ],
      "name": "getBid",
      "outputs": [
        {
          "internalType": "uint256",
          "name": "",
          "type": "uint256"
        }
      ],
      "stateMutability": "view",
      "type": "function",
      "constant": true
    },
    {
      "inputs": [
        {
          "internalType": "uint8",
          "name": "_row",
          "type": "uint8"
        },
        {
          "internalType": "uint8",
          "name": "_col",
          "type": "uint8"
        }
      ],
      "name": "getMessage",
      "outputs": [
        {
          "internalType": "string",
          "name": "",
          "type": "string"
        }
      ],
      "stateMutability": "view",
      "type": "function",
      "constant": true
    }
  ],
  "bytecode": "0x608060405234801561000f575f80fd5b503361012c5f6101000a81548173ffffffffffffffffffffffffffffffffffffffff021916908373ffffffffffffffffffffffffffffffffffffffff1602179055506112198061005e5f395ff3fe608060405260043610610090575f3560e01c80638da5cb5b116100585780638da5cb5b1461016e578063c598cdac14610198578063de8fa431146101d4578063ea2eccaf146101fe578063f30f86ea1461023a57610090565b806318d53ab2146100945780634ef524ca146100d057806358506e90146100ec5780636178daec1461011657806367715c4914610152575b5f80fd5b34801561009f575f80fd5b506100ba60048036038101906100b591906108cb565b610276565b6040516100c79190610921565b60405180910390f35b6100ea60048036038101906100e59190610964565b6102bb565b005b3480156100f7575f80fd5b506101006103f1565b60405161010d9190610a59565b60405180910390f35b348015610121575f80fd5b5061013c60048036038101906101379190610a73565b61043b565b6040516101499190610b28565b60405180910390f35b61016c60048036038101906101679190610ba9565b6104da565b005b348015610179575f80fd5b50610182610683565b60405161018f9190610c6c565b60405180910390f35b3480156101a3575f80fd5b506101be60048036038101906101b991906108cb565b6106a9565b6040516101cb9190610b28565b60405180910390f35b3480156101df575f80fd5b506101e8610775565b6040516101f59190610ca1565b60405180910390f35b348015610209575f80fd5b50610224600480360381019061021f9190610a73565b61077d565b6040516102319190610921565b60405180910390f35b348015610245575f80fd5b50610260600480360381019061025b9190610a73565b610795565b60405161026d9190610921565b60405180910390f35b5f808260ff16600a8560ff1661028c9190610ce7565b6102969190610d23565b61ffff169050606481606481106102b0576102af610d58565b5b015491505092915050565b5f8260ff16600a8560ff166102d09190610ce7565b6102da9190610d23565b61ffff16905063010000008210610326576040517f08c379a000000000000000000000000000000000000000000000000000000000815260040161031d90610df5565b60405180910390fd5b346064826064811061033b5761033a610d58565b5b01541061037d576040517f08c379a000000000000000000000000000000000000000000000000000000000815260040161037490610e83565b60405180910390fd5b346064826064811061039257610391610d58565b5b0181905550815f82606481106103ab576103aa610d58565b5b01819055507fb4f1a3d0fb26038ca4fba7792831003a84ad8d09084dffd571111859742f1cdc8484846040516103e393929190610eb0565b60405180910390a150505050565b6103f961086a565b5f606480602002604051908101604052809291908260648015610431576020028201915b81548152602001906001019080831161041d575b5050505050905090565b60c8816064811061044a575f80fd5b015f91509050805461045b90610f12565b80601f016020809104026020016040519081016040528092919081815260200182805461048790610f12565b80156104d25780601f106104a9576101008083540402835291602001916104d2565b820191905f5260205f20905b8154815290600101906020018083116104b557829003601f168201915b505050505081565b5f8460ff16600a8760ff166104ef9190610ce7565b6104f99190610d23565b61ffff16905063010000008410610545576040517f08c379a000000000000000000000000000000000000000000000000000000000815260040161053c90610df5565b60405180910390fd5b346064826064811061055a57610559610d58565b5b01541061059c576040517f08c379a000000000000000000000000000000000000000000000000000000000815260040161059390610e83565b60405180910390fd5b6105e883838080601f0160208091040260200160405190810160405280939291908181526020018383808284375f81840152601f19601f820116905080830192505050505050506107ae565b828260c883606481106105fe576105fd610d58565b5b01918261060c929190611116565b50346064826064811061062257610621610d58565b5b0181905550835f826064811061063b5761063a610d58565b5b01819055507fb4f1a3d0fb26038ca4fba7792831003a84ad8d09084dffd571111859742f1cdc86868660405161067393929190610eb0565b60405180910390a1505050505050565b61012c5f9054906101000a900473ffffffffffffffffffffffffffffffffffffffff1681565b60605f8260ff16600a8560ff166106c09190610ce7565b6106ca9190610d23565b61ffff16905060c881606481106106e4576106e3610d58565b5b0180546106f090610f12565b80601f016020809104026020016040519081016040528092919081815260200182805461071c90610f12565b80156107675780601f1061073e57610100808354040283529160200191610767565b820191905f5260205f20905b81548152906001019060200180831161074a57829003601f168201915b505050505091505092915050565b5f600a905090565b5f816064811061078b575f80fd5b015f915090505481565b606481606481106107a4575f80fd5b015f915090505481565b610844816040516024016107c29190610b28565b6040516020818303038152906040527f41304fac000000000000000000000000000000000000000000000000000000007bffffffffffffffffffffffffffffffffffffffffffffffffffffffff19166020820180517bffffffffffffffffffffffffffffffffffffffffffffffffffffffff8381831617835250505050610847565b50565b5f6a636f6e736f6c652e6c6f6790508151602083015f808383865afa5050505050565b60405180610c800160405280606490602082028036833780820191505090505090565b5f80fd5b5f80fd5b5f60ff82169050919050565b6108aa81610895565b81146108b4575f80fd5b50565b5f813590506108c5816108a1565b92915050565b5f80604083850312156108e1576108e061088d565b5b5f6108ee858286016108b7565b92505060206108ff858286016108b7565b9150509250929050565b5f819050919050565b61091b81610909565b82525050565b5f6020820190506109345f830184610912565b92915050565b61094381610909565b811461094d575f80fd5b50565b5f8135905061095e8161093a565b92915050565b5f805f6060848603121561097b5761097a61088d565b5b5f610988868287016108b7565b9350506020610999868287016108b7565b92505060406109aa86828701610950565b9150509250925092565b5f60649050919050565b5f81905092915050565b5f819050919050565b6109da81610909565b82525050565b5f6109eb83836109d1565b60208301905092915050565b5f602082019050919050565b610a0c816109b4565b610a1681846109be565b9250610a21826109c8565b805f5b83811015610a51578151610a3887826109e0565b9650610a43836109f7565b925050600181019050610a24565b505050505050565b5f610c8082019050610a6d5f830184610a03565b92915050565b5f60208284031215610a8857610a8761088d565b5b5f610a9584828501610950565b91505092915050565b5f81519050919050565b5f82825260208201905092915050565b5f5b83811015610ad5578082015181840152602081019050610aba565b5f8484015250505050565b5f601f19601f8301169050919050565b5f610afa82610a9e565b610b048185610aa8565b9350610b14818560208601610ab8565b610b1d81610ae0565b840191505092915050565b5f6020820190508181035f830152610b408184610af0565b905092915050565b5f80fd5b5f80fd5b5f80fd5b5f8083601f840112610b6957610b68610b48565b5b8235905067ffffffffffffffff811115610b8657610b85610b4c565b5b602083019150836001820283011115610ba257610ba1610b50565b5b9250929050565b5f805f805f60808688031215610bc257610bc161088d565b5b5f610bcf888289016108b7565b9550506020610be0888289016108b7565b9450506040610bf188828901610950565b935050606086013567ffffffffffffffff811115610c1257610c11610891565b5b610c1e88828901610b54565b92509250509295509295909350565b5f73ffffffffffffffffffffffffffffffffffffffff82169050919050565b5f610c5682610c2d565b9050919050565b610c6681610c4c565b82525050565b5f602082019050610c7f5f830184610c5d565b92915050565b5f61ffff82169050919050565b610c9b81610c85565b82525050565b5f602082019050610cb45f830184610c92565b92915050565b7f4e487b71000000000000000000000000000000000000000000000000000000005f52601160045260245ffd5b5f610cf182610c85565b9150610cfc83610c85565b9250828202610d0a81610c85565b9150808214610d1c57610d1b610cba565b5b5092915050565b5f610d2d82610c85565b9150610d3883610c85565b9250828201905061ffff811115610d5257610d51610cba565b5b92915050565b7f4e487b71000000000000000000000000000000000000000000000000000000005f52603260045260245ffd5b7f5247422076616c756573206d757374206265206265747765656e203020616e645f8201527f2032353500000000000000000000000000000000000000000000000000000000602082015250565b5f610ddf602483610aa8565b9150610dea82610d85565b604082019050919050565b5f6020820190508181035f830152610e0c81610dd3565b9050919050565b7f426964206d757374206265206d6f7265207468616e207468652063757272656e5f8201527f7420626964000000000000000000000000000000000000000000000000000000602082015250565b5f610e6d602583610aa8565b9150610e7882610e13565b604082019050919050565b5f6020820190508181035f830152610e9a81610e61565b9050919050565b610eaa81610895565b82525050565b5f606082019050610ec35f830186610ea1565b610ed06020830185610ea1565b610edd6040830184610912565b949350505050565b7f4e487b71000000000000000000000000000000000000000000000000000000005f52602260045260245ffd5b5f6002820490506001821680610f2957607f821691505b602082108103610f3c57610f3b610ee5565b5b50919050565b5f82905092915050565b7f4e487b71000000000000000000000000000000000000000000000000000000005f52604160045260245ffd5b5f819050815f5260205f209050919050565b5f6020601f8301049050919050565b5f82821b905092915050565b5f60088302610fd57fffffffffffffffffffffffffffffffffffffffffffffffffffffffffffffffff82610f9a565b610fdf8683610f9a565b95508019841693508086168417925050509392505050565b5f819050919050565b5f61101a61101561101084610909565b610ff7565b610909565b9050919050565b5f819050919050565b61103383611000565b61104761103f82611021565b848454610fa6565b825550505050565b5f90565b61105b61104f565b61106681848461102a565b505050565b5b818110156110895761107e5f82611053565b60018101905061106c565b5050565b601f8211156110ce5761109f81610f79565b6110a884610f8b565b810160208510156110b7578190505b6110cb6110c385610f8b565b83018261106b565b50505b505050565b5f82821c905092915050565b5f6110ee5f19846008026110d3565b1980831691505092915050565b5f61110683836110df565b9150826002028217905092915050565b6111208383610f42565b67ffffffffffffffff81111561113957611138610f4c565b5b6111438254610f12565b61114e82828561108d565b5f601f83116001811461117b575f8415611169578287013590505b61117385826110fb565b8655506111da565b601f19841661118986610f79565b5f5b828110156111b05784890135825560018201915060208501945060208101905061118b565b868310156111cd57848901356111c9601f8916826110df565b8355505b6001600288020188555050505b5050505050505056fea2646970667358221220ffdcbb7a45994699537e2b593bd42b3f76cf697263724c8b4396cf59243f662764736f6c63430008150033",
  "immutableReferences": {},
  "source": "pragma solidity ^0.8.21;\nimport \"truffle/console.sol\";\n\ncontract Board {\n    uint16 constant size = 10;\n    // flattened 2d arrays\n    uint256[size * size] public arr_colours;\n    uint256[size * size] public arr_bids;\n    string[size*size] public arr_messages;\n    address public owner;\n\n    // ------------\n    // Constructor\n\n    constructor() {\n        owner = msg.sender;\n    }\n\n    // ------------\n    // Modifiers\n\n    modifier onlyOwner() {\n        require(\n            msg.sender == owner,\n            \"Only the contract owner can call this function\"\n        );\n        _;\n    }\n\n    // ------------\n    // Events\n\n    event ColourChange(uint8 _row, uint8 _col, uint256 colour);\n\n    // ------------\n    // Functions\n\n    function placeBid(uint8 _row, uint8 _col, uint256 _colour) public payable {\n        uint256 pos = _row * size + _col;\n        require(\n            _colour < 16777216, // = 16**6 = #ffffff\n            \"RGB values must be between 0 and 255\"\n        );\n        require(\n            arr_bids[pos] < msg.value,\n            \"Bid must be more than the current bid\"\n        );\n\n        // set bid for given position\n        arr_bids[pos] = msg.value;\n\n        // set colour for given position\n        arr_colours[pos] = _colour;\n        // Broadcast change\n        emit ColourChange(_row, _col, _colour);\n    }\n    function placeBidMessage(uint8 _row, uint8 _col, uint256 _colour, string calldata _message) public payable {\n        uint256 pos = _row * size + _col;\n        require(\n            _colour < 16777216, // = 16**6 = #ffffff\n            \"RGB values must be between 0 and 255\"\n        );\n        require(\n            arr_bids[pos] < msg.value,\n            \"Bid must be more than the current bid\"\n        );\n\n        console.log(_message);\n        arr_messages[pos] = _message;\n\n        // set bid for given position\n        arr_bids[pos] = msg.value;\n\n        // set colour for given position\n        arr_colours[pos] = _colour;\n        // Broadcast change\n        emit ColourChange(_row, _col, _colour);\n    }\n\n    function getSize() public pure returns (uint16) {\n        return size;\n    }\n\n    function getColours() public view returns (uint256[size * size] memory) {\n        return arr_colours;\n    }\n\n\n    function getBid(uint8 _row, uint8 _col) public view returns (uint256) {\n        uint256 pos = _row * size + _col;\n        return arr_bids[pos];\n    }\n\n    function getMessage(uint8 _row, uint8 _col) public view returns (string memory) {\n        uint256 pos = _row * size + _col;\n        return arr_messages[pos];\n    }\n}\n\n//     0xd8b934580fcE35a11B58C6D73aDeE468a2833fa8\n// 0xf8e81D47203A594245E36C48e151709F0C19fBe8\n",
  "sourcePath": "/home/martin/Documents/Code/ethereum_intro/one_hundred_pixel_board/contracts/Board.sol",
  "compiler": {
    "name": "solc",
    "version": "0.8.21+commit.d9974bed.Emscripten.clang"
  },
  "schemaVersion": "3.4.16",
  "updatedAt": "2024-05-15T14:52:22.733Z",
  "networkType": "ethereum",
  "devdoc": {
    "kind": "dev",
    "methods": {},
    "version": 1
  },
  "userdoc": {
    "kind": "user",
    "methods": {},
    "version": 1
  }
}